{
  "_format": "hh-sol-artifact-1",
  "contractName": "StakingContract",
  "sourceName": "contracts/staking.sol",
  "abi": [
    {
      "inputs": [
        {
          "internalType": "address",
          "name": "_stakingToken",
          "type": "address"
        },
        {
          "internalType": "address",
          "name": "_rewardToken",
          "type": "address"
        },
        {
          "internalType": "uint256",
          "name": "_maxLockingPeriod",
          "type": "uint256"
        },
        {
          "internalType": "uint256",
          "name": "_maxLockMultiplier",
          "type": "uint256"
        },
        {
          "internalType": "uint256",
          "name": "_claimDelay",
          "type": "uint256"
        },
        {
          "internalType": "uint256",
          "name": "_apy",
          "type": "uint256"
        }
      ],
      "stateMutability": "nonpayable",
      "type": "constructor"
    },
    {
      "anonymous": false,
      "inputs": [
        {
          "indexed": true,
          "internalType": "address",
          "name": "user",
          "type": "address"
        },
        {
          "indexed": false,
          "internalType": "uint256",
          "name": "amount",
          "type": "uint256"
        }
      ],
      "name": "Claimed",
      "type": "event"
    },
    {
      "anonymous": false,
      "inputs": [
        {
          "indexed": true,
          "internalType": "address",
          "name": "previousOwner",
          "type": "address"
        },
        {
          "indexed": true,
          "internalType": "address",
          "name": "newOwner",
          "type": "address"
        }
      ],
      "name": "OwnershipTransferred",
      "type": "event"
    },
    {
      "anonymous": false,
      "inputs": [
        {
          "indexed": true,
          "internalType": "address",
          "name": "user",
          "type": "address"
        },
        {
          "indexed": false,
          "internalType": "uint256",
          "name": "amount",
          "type": "uint256"
        },
        {
          "indexed": false,
          "internalType": "uint256",
          "name": "stakingStartTimeStamp",
          "type": "uint256"
        }
      ],
      "name": "Staked",
      "type": "event"
    },
    {
      "anonymous": false,
      "inputs": [
        {
          "indexed": true,
          "internalType": "address",
          "name": "user",
          "type": "address"
        },
        {
          "indexed": false,
          "internalType": "uint256",
          "name": "amount",
          "type": "uint256"
        }
      ],
      "name": "Unstaked",
      "type": "event"
    },
    {
      "inputs": [],
      "name": "apy",
      "outputs": [
        {
          "internalType": "uint256",
          "name": "",
          "type": "uint256"
        }
      ],
      "stateMutability": "view",
      "type": "function"
    },
    {
      "inputs": [
        {
          "internalType": "uint256",
          "name": "stakingStartTimeStamp",
          "type": "uint256"
        }
      ],
      "name": "calculateLockingMultiplier",
      "outputs": [
        {
          "internalType": "uint256",
          "name": "",
          "type": "uint256"
        }
      ],
      "stateMutability": "view",
      "type": "function"
    },
    {
      "inputs": [
        {
          "internalType": "address",
          "name": "user",
          "type": "address"
        }
      ],
      "name": "calculateReward",
      "outputs": [
        {
          "internalType": "uint256",
          "name": "",
          "type": "uint256"
        }
      ],
      "stateMutability": "view",
      "type": "function"
    },
    {
      "inputs": [],
      "name": "claim",
      "outputs": [],
      "stateMutability": "nonpayable",
      "type": "function"
    },
    {
      "inputs": [],
      "name": "claimDelay",
      "outputs": [
        {
          "internalType": "uint256",
          "name": "",
          "type": "uint256"
        }
      ],
      "stateMutability": "view",
      "type": "function"
    },
    {
      "inputs": [],
      "name": "maxLockMultiplier",
      "outputs": [
        {
          "internalType": "uint256",
          "name": "",
          "type": "uint256"
        }
      ],
      "stateMutability": "view",
      "type": "function"
    },
    {
      "inputs": [],
      "name": "maxLockingPeriod",
      "outputs": [
        {
          "internalType": "uint256",
          "name": "",
          "type": "uint256"
        }
      ],
      "stateMutability": "view",
      "type": "function"
    },
    {
      "inputs": [],
      "name": "owner",
      "outputs": [
        {
          "internalType": "address",
          "name": "",
          "type": "address"
        }
      ],
      "stateMutability": "view",
      "type": "function"
    },
    {
      "inputs": [],
      "name": "renounceOwnership",
      "outputs": [],
      "stateMutability": "nonpayable",
      "type": "function"
    },
    {
      "inputs": [],
      "name": "rewardPerSecond",
      "outputs": [
        {
          "internalType": "uint256",
          "name": "",
          "type": "uint256"
        }
      ],
      "stateMutability": "view",
      "type": "function"
    },
    {
      "inputs": [],
      "name": "rewardToken",
      "outputs": [
        {
          "internalType": "contract IERC20",
          "name": "",
          "type": "address"
        }
      ],
      "stateMutability": "view",
      "type": "function"
    },
    {
      "inputs": [
        {
          "internalType": "uint256",
          "name": "amount",
          "type": "uint256"
        }
      ],
      "name": "stake",
      "outputs": [],
      "stateMutability": "nonpayable",
      "type": "function"
    },
    {
      "inputs": [],
      "name": "stakingToken",
      "outputs": [
        {
          "internalType": "contract IERC20",
          "name": "",
          "type": "address"
        }
      ],
      "stateMutability": "view",
      "type": "function"
    },
    {
      "inputs": [],
      "name": "totalRewardsClaimed",
      "outputs": [
        {
          "internalType": "uint256",
          "name": "",
          "type": "uint256"
        }
      ],
      "stateMutability": "view",
      "type": "function"
    },
    {
      "inputs": [],
      "name": "totalStaked",
      "outputs": [
        {
          "internalType": "uint256",
          "name": "",
          "type": "uint256"
        }
      ],
      "stateMutability": "view",
      "type": "function"
    },
    {
      "inputs": [
        {
          "internalType": "address",
          "name": "newOwner",
          "type": "address"
        }
      ],
      "name": "transferOwnership",
      "outputs": [],
      "stateMutability": "nonpayable",
      "type": "function"
    },
    {
      "inputs": [],
      "name": "unstake",
      "outputs": [],
      "stateMutability": "nonpayable",
      "type": "function"
    },
    {
      "inputs": [
        {
          "internalType": "uint256",
          "name": "_maxLockingPeriod",
          "type": "uint256"
        },
        {
          "internalType": "uint256",
          "name": "_maxLockMultiplier",
          "type": "uint256"
        },
        {
          "internalType": "uint256",
          "name": "_claimDelay",
          "type": "uint256"
        },
        {
          "internalType": "uint256",
          "name": "_apy",
          "type": "uint256"
        }
      ],
      "name": "updateParameters",
      "outputs": [],
      "stateMutability": "nonpayable",
      "type": "function"
    },
    {
      "inputs": [
        {
          "internalType": "address",
          "name": "",
          "type": "address"
        }
      ],
      "name": "users",
      "outputs": [
        {
          "internalType": "uint256",
          "name": "amount",
          "type": "uint256"
        },
        {
          "internalType": "uint256",
          "name": "stakingStartTimeStamp",
          "type": "uint256"
        },
        {
          "internalType": "uint256",
          "name": "lastClaimTime",
          "type": "uint256"
        },
        {
          "internalType": "uint256",
          "name": "claimedAmount",
          "type": "uint256"
        }
      ],
      "stateMutability": "view",
      "type": "function"
    }
  ],
  "bytecode": "0x60c06040523480156200001157600080fd5b5060405162001d6838038062001d68833981810160405281019062000037919062000258565b620000576200004b620000e760201b60201c565b620000ef60201b60201c565b8573ffffffffffffffffffffffffffffffffffffffff1660808173ffffffffffffffffffffffffffffffffffffffff16815250508473ffffffffffffffffffffffffffffffffffffffff1660a08173ffffffffffffffffffffffffffffffffffffffff168152505083600181905550826002819055508160038190555080600481905550505050505050620002f4565b600033905090565b60008060009054906101000a900473ffffffffffffffffffffffffffffffffffffffff169050816000806101000a81548173ffffffffffffffffffffffffffffffffffffffff021916908373ffffffffffffffffffffffffffffffffffffffff1602179055508173ffffffffffffffffffffffffffffffffffffffff168173ffffffffffffffffffffffffffffffffffffffff167f8be0079c531659141344cd1fd0a4f28419497f9722a3daafe3b4186f6b6457e060405160405180910390a35050565b600080fd5b600073ffffffffffffffffffffffffffffffffffffffff82169050919050565b6000620001e582620001b8565b9050919050565b620001f781620001d8565b81146200020357600080fd5b50565b6000815190506200021781620001ec565b92915050565b6000819050919050565b62000232816200021d565b81146200023e57600080fd5b50565b600081519050620002528162000227565b92915050565b60008060008060008060c08789031215620002785762000277620001b3565b5b60006200028889828a0162000206565b96505060206200029b89828a0162000206565b9550506040620002ae89828a0162000241565b9450506060620002c189828a0162000241565b9350506080620002d489828a0162000241565b92505060a0620002e789828a0162000241565b9150509295509295509295565b60805160a051611a3262000336600039600081816104d401528181610921015261106501526000818161057301528181610a260152610c880152611a326000f3fe608060405234801561001057600080fd5b50600436106101215760003560e01c80638f10369a116100ad578063d82e396211610071578063d82e3962146102a1578063e9665d48146102d1578063ee1eab4f14610301578063f2fde38b1461031d578063f7c618c11461033957610121565b80638f10369a146101f8578063a34b0f7614610216578063a694fc3a14610234578063a87430ba14610250578063bf0df4451461028357610121565b80634e71d92d116100f45780634e71d92d1461018a578063715018a61461019457806372f702f31461019e578063817b1cd2146101bc5780638da5cb5b146101da57610121565b80631c8ec2991461012657806320ca71d7146101445780632def6620146101625780633bcfc4b81461016c575b600080fd5b61012e610357565b60405161013b91906111ea565b60405180910390f35b61014c61035d565b60405161015991906111ea565b60405180910390f35b61016a610363565b005b610174610663565b60405161018191906111ea565b60405180910390f35b610192610669565b005b61019c610a10565b005b6101a6610a24565b6040516101b39190611284565b60405180910390f35b6101c4610a48565b6040516101d191906111ea565b60405180910390f35b6101e2610a4e565b6040516101ef91906112c0565b60405180910390f35b610200610a77565b60405161020d91906111ea565b60405180910390f35b61021e610a7d565b60405161022b91906111ea565b60405180910390f35b61024e6004803603810190610249919061130c565b610a83565b005b61026a60048036038101906102659190611365565b610d7b565b60405161027a9493929190611392565b60405180910390f35b61028b610dab565b60405161029891906111ea565b60405180910390f35b6102bb60048036038101906102b69190611365565b610db1565b6040516102c891906111ea565b60405180910390f35b6102eb60048036038101906102e6919061130c565b610f09565b6040516102f891906111ea565b60405180910390f35b61031b600480360381019061031691906113d7565b610fb6565b005b61033760048036038101906103329190611365565b610fe0565b005b610341611063565b60405161034e9190611284565b60405180910390f35b60035481565b60025481565b6000600860003373ffffffffffffffffffffffffffffffffffffffff1673ffffffffffffffffffffffffffffffffffffffff168152602001908152602001600020905060008160000154116103ed576040517f08c379a00000000000000000000000000000000000000000000000000000000081526004016103e49061149b565b60405180910390fd5b60035481600101546103ff91906114ea565b421015610441576040517f08c379a00000000000000000000000000000000000000000000000000000000081526004016104389061156a565b60405180910390fd5b600081600001549050806006600082825461045c919061158a565b92505081905550600061046e33610db1565b9050600860003373ffffffffffffffffffffffffffffffffffffffff1673ffffffffffffffffffffffffffffffffffffffff16815260200190815260200160002060008082016000905560018201600090556002820160009055600382016000905550507f000000000000000000000000000000000000000000000000000000000000000073ffffffffffffffffffffffffffffffffffffffff1663a9059cbb33836040518363ffffffff1660e01b815260040161052d9291906115be565b6020604051808303816000875af115801561054c573d6000803e3d6000fd5b505050506040513d601f19601f82011682018060405250810190610570919061161f565b507f000000000000000000000000000000000000000000000000000000000000000073ffffffffffffffffffffffffffffffffffffffff1663a9059cbb33846040518363ffffffff1660e01b81526004016105cc9291906115be565b6020604051808303816000875af11580156105eb573d6000803e3d6000fd5b505050506040513d601f19601f8201168201806040525081019061060f919061161f565b503373ffffffffffffffffffffffffffffffffffffffff167f0f5bb82176feb1b5e747e28471aa92156a04d9f3ab9f45f28e2d704232b93f758360405161065691906111ea565b60405180910390a2505050565b60045481565b60003390506000600860008373ffffffffffffffffffffffffffffffffffffffff1673ffffffffffffffffffffffffffffffffffffffff16815260200190815260200160002060000154116106f3576040517f08c379a00000000000000000000000000000000000000000000000000000000081526004016106ea9061149b565b60405180910390fd5b600354600860008373ffffffffffffffffffffffffffffffffffffffff1673ffffffffffffffffffffffffffffffffffffffff1681526020019081526020016000206002015461074391906114ea565b421015610785576040517f08c379a000000000000000000000000000000000000000000000000000000000815260040161077c9061156a565b60405180910390fd5b600061079082610db1565b9050600860008373ffffffffffffffffffffffffffffffffffffffff1673ffffffffffffffffffffffffffffffffffffffff168152602001908152602001600020600301548111610816576040517f08c379a000000000000000000000000000000000000000000000000000000000815260040161080d90611698565b60405180910390fd5b600860008373ffffffffffffffffffffffffffffffffffffffff1673ffffffffffffffffffffffffffffffffffffffff1681526020019081526020016000206003015481610864919061158a565b905042600860008473ffffffffffffffffffffffffffffffffffffffff1673ffffffffffffffffffffffffffffffffffffffff1681526020019081526020016000206002018190555080600860008473ffffffffffffffffffffffffffffffffffffffff1673ffffffffffffffffffffffffffffffffffffffff16815260200190815260200160002060030160008282546108ff91906114ea565b92505081905550806007600082825461091891906114ea565b925050819055507f000000000000000000000000000000000000000000000000000000000000000073ffffffffffffffffffffffffffffffffffffffff1663a9059cbb83836040518363ffffffff1660e01b815260040161097a9291906115be565b6020604051808303816000875af1158015610999573d6000803e3d6000fd5b505050506040513d601f19601f820116820180604052508101906109bd919061161f565b508173ffffffffffffffffffffffffffffffffffffffff167fd8138f8a3f377c5259ca548e70e4c2de94f129f5a11036a15b69513cba2b426a82604051610a0491906111ea565b60405180910390a25050565b610a18611087565b610a226000611105565b565b7f000000000000000000000000000000000000000000000000000000000000000081565b60065481565b60008060009054906101000a900473ffffffffffffffffffffffffffffffffffffffff16905090565b60055481565b60075481565b60008111610ac6576040517f08c379a0000000000000000000000000000000000000000000000000000000008152600401610abd90611704565b60405180910390fd5b6000600860003373ffffffffffffffffffffffffffffffffffffffff1673ffffffffffffffffffffffffffffffffffffffff1681526020019081526020016000206000015414610b4b576040517f08c379a0000000000000000000000000000000000000000000000000000000008152600401610b4290611770565b60405180910390fd5b600042905081600860003373ffffffffffffffffffffffffffffffffffffffff1673ffffffffffffffffffffffffffffffffffffffff1681526020019081526020016000206000018190555080600860003373ffffffffffffffffffffffffffffffffffffffff1673ffffffffffffffffffffffffffffffffffffffff1681526020019081526020016000206001018190555080600860003373ffffffffffffffffffffffffffffffffffffffff1673ffffffffffffffffffffffffffffffffffffffff168152602001908152602001600020600201819055506000600860003373ffffffffffffffffffffffffffffffffffffffff1673ffffffffffffffffffffffffffffffffffffffff168152602001908152602001600020600301819055508160066000828254610c7f91906114ea565b925050819055507f000000000000000000000000000000000000000000000000000000000000000073ffffffffffffffffffffffffffffffffffffffff166323b872dd3330856040518463ffffffff1660e01b8152600401610ce393929190611790565b6020604051808303816000875af1158015610d02573d6000803e3d6000fd5b505050506040513d601f19601f82011682018060405250810190610d26919061161f565b503373ffffffffffffffffffffffffffffffffffffffff167f1449c6dd7851abc30abf37f57715f492010519147cc2652fbc38202c18a6ee908383604051610d6f9291906117c7565b60405180910390a25050565b60086020528060005260406000206000915090508060000154908060010154908060020154908060030154905084565b60015481565b600080600860008473ffffffffffffffffffffffffffffffffffffffff1673ffffffffffffffffffffffffffffffffffffffff1681526020019081526020016000206000015411610e37576040517f08c379a0000000000000000000000000000000000000000000000000000000008152600401610e2e9061149b565b60405180910390fd5b6000600860008473ffffffffffffffffffffffffffffffffffffffff1673ffffffffffffffffffffffffffffffffffffffff1681526020019081526020016000206000015490506000610ecb600860008673ffffffffffffffffffffffffffffffffffffffff1673ffffffffffffffffffffffffffffffffffffffff16815260200190815260200160002060010154610f09565b905060006004548284610ede91906117f0565b610ee891906117f0565b905068056bc75e2d6310000081610eff9190611861565b9350505050919050565b600042821115610f4e576040517f08c379a0000000000000000000000000000000000000000000000000000000008152600401610f45906118de565b60405180910390fd5b60008242610f5c919061158a565b9050600154811115610f6e5760015490505b6000670de0b6b3a764000060025483610f8791906117f0565b610f9191906117f0565b90506000600154905060008183610fa89190611861565b905080945050505050919050565b610fbe611087565b8360018190555082600281905550816003819055508060048190555050505050565b610fe8611087565b600073ffffffffffffffffffffffffffffffffffffffff168173ffffffffffffffffffffffffffffffffffffffff1603611057576040517f08c379a000000000000000000000000000000000000000000000000000000000815260040161104e90611970565b60405180910390fd5b61106081611105565b50565b7f000000000000000000000000000000000000000000000000000000000000000081565b61108f6111c9565b73ffffffffffffffffffffffffffffffffffffffff166110ad610a4e565b73ffffffffffffffffffffffffffffffffffffffff1614611103576040517f08c379a00000000000000000000000000000000000000000000000000000000081526004016110fa906119dc565b60405180910390fd5b565b60008060009054906101000a900473ffffffffffffffffffffffffffffffffffffffff169050816000806101000a81548173ffffffffffffffffffffffffffffffffffffffff021916908373ffffffffffffffffffffffffffffffffffffffff1602179055508173ffffffffffffffffffffffffffffffffffffffff168173ffffffffffffffffffffffffffffffffffffffff167f8be0079c531659141344cd1fd0a4f28419497f9722a3daafe3b4186f6b6457e060405160405180910390a35050565b600033905090565b6000819050919050565b6111e4816111d1565b82525050565b60006020820190506111ff60008301846111db565b92915050565b600073ffffffffffffffffffffffffffffffffffffffff82169050919050565b6000819050919050565b600061124a61124561124084611205565b611225565b611205565b9050919050565b600061125c8261122f565b9050919050565b600061126e82611251565b9050919050565b61127e81611263565b82525050565b60006020820190506112996000830184611275565b92915050565b60006112aa82611205565b9050919050565b6112ba8161129f565b82525050565b60006020820190506112d560008301846112b1565b92915050565b600080fd5b6112e9816111d1565b81146112f457600080fd5b50565b600081359050611306816112e0565b92915050565b600060208284031215611322576113216112db565b5b6000611330848285016112f7565b91505092915050565b6113428161129f565b811461134d57600080fd5b50565b60008135905061135f81611339565b92915050565b60006020828403121561137b5761137a6112db565b5b600061138984828501611350565b91505092915050565b60006080820190506113a760008301876111db565b6113b460208301866111db565b6113c160408301856111db565b6113ce60608301846111db565b95945050505050565b600080600080608085870312156113f1576113f06112db565b5b60006113ff878288016112f7565b9450506020611410878288016112f7565b9350506040611421878288016112f7565b9250506060611432878288016112f7565b91505092959194509250565b600082825260208201905092915050565b7f5573657220686173206e6f207374616b656420746f6b656e7300000000000000600082015250565b600061148560198361143e565b91506114908261144f565b602082019050919050565b600060208201905081810360008301526114b481611478565b9050919050565b7f4e487b7100000000000000000000000000000000000000000000000000000000600052601160045260246000fd5b60006114f5826111d1565b9150611500836111d1565b9250828201905080821115611518576115176114bb565b5b92915050565b7f436c61696d2064656c617920686173206e6f7420706173736564000000000000600082015250565b6000611554601a8361143e565b915061155f8261151e565b602082019050919050565b6000602082019050818103600083015261158381611547565b9050919050565b6000611595826111d1565b91506115a0836111d1565b92508282039050818111156115b8576115b76114bb565b5b92915050565b60006040820190506115d360008301856112b1565b6115e060208301846111db565b9392505050565b60008115159050919050565b6115fc816115e7565b811461160757600080fd5b50565b600081519050611619816115f3565b92915050565b600060208284031215611635576116346112db565b5b60006116438482850161160a565b91505092915050565b7f4e6f207265776172647320746f20636c61696d00000000000000000000000000600082015250565b600061168260138361143e565b915061168d8261164c565b602082019050919050565b600060208201905081810360008301526116b181611675565b9050919050565b7f416d6f756e74206d7573742062652067726561746572207468616e2030000000600082015250565b60006116ee601d8361143e565b91506116f9826116b8565b602082019050919050565b6000602082019050818103600083015261171d816116e1565b9050919050565b7f5573657220616c726561647920686173207374616b656420746f6b656e730000600082015250565b600061175a601e8361143e565b915061176582611724565b602082019050919050565b600060208201905081810360008301526117898161174d565b9050919050565b60006060820190506117a560008301866112b1565b6117b260208301856112b1565b6117bf60408301846111db565b949350505050565b60006040820190506117dc60008301856111db565b6117e960208301846111db565b9392505050565b60006117fb826111d1565b9150611806836111d1565b9250828202611814816111d1565b9150828204841483151761182b5761182a6114bb565b5b5092915050565b7f4e487b7100000000000000000000000000000000000000000000000000000000600052601260045260246000fd5b600061186c826111d1565b9150611877836111d1565b92508261188757611886611832565b5b828204905092915050565b7f4c6f636b2074696d6520697320696e2074686520667574757265000000000000600082015250565b60006118c8601a8361143e565b91506118d382611892565b602082019050919050565b600060208201905081810360008301526118f7816118bb565b9050919050565b7f4f776e61626c653a206e6577206f776e657220697320746865207a65726f206160008201527f6464726573730000000000000000000000000000000000000000000000000000602082015250565b600061195a60268361143e565b9150611965826118fe565b604082019050919050565b600060208201905081810360008301526119898161194d565b9050919050565b7f4f776e61626c653a2063616c6c6572206973206e6f7420746865206f776e6572600082015250565b60006119c660208361143e565b91506119d182611990565b602082019050919050565b600060208201905081810360008301526119f5816119b9565b905091905056fea26469706673582212206a2d9b64d1e9c28e3dd5df441d30845d4907f16036dca11b9c05d7279caec70364736f6c63430008180033",
  "linkReferences": {},
  "deployedLinkReferences": {}
}